:100000000C9472000C9493000C9493000C94930045
:100010000C9493000C9493000C9493000C94930014
:100020000C9493000C9493000C9493000C94930004
:100030000C9493000C9493000C9493000C949300F4
:100040000C9493000C9493000C9493000C949300E4
:100050000C9493000C9493000C9493000C949300D4
:100060000C9493000C94B0000C9493000C949300A7
:100070000C9493000C9493000C9493000C949300B4
:100080000C9493000C9493000C9493000C949300A4
:100090000C9493000C9493000C9493000C94930094
:1000A0000C9493000C9493000C9493000C94930084
:1000B0000C9493000C9493000C9493000C94930074
:1000C0000C9493000C9493000C9493000C94930064
:1000D0000C9493000C9493000C9493000C94930054
:1000E0000C94930011241FBECFEFD1E2DEBFCDBF31
:1000F00000E00CBF12E0A0E0B2E0E2E0F2E000E0DD
:100100000BBF02C007900D92AE30B107D9F712E0D5
:10011000AEE0B2E001C01D92AF30B107E1F70E943E
:10012000C8000C94FF000C9400001092C000A2ECD8
:10013000B0E086E08C939FE59093C4001092C500D8
:10014000E1ECF0E098E990838C9388E18083089556
:10015000E0ECF0E0908195FFFDCF8093C60008951C
:100160001F920F920FB60F9211248F938091C600A9
:1001700080930E028F910F900FBE0F901F901895D5
:10018000E0ECF0E080818823ECF78091C6000895D0
:10019000CF93DF93CDB7DEB72C970FB6F894DEBFC1
:1001A0000FBECDBF0E9495000F2EF0E0AF2EF2E003
:1001B000BF2EF02D0F2EFDE0CF2EF02D0F2EFDE0E7
:1001C000EF2EFF24F02DEC0EFD1E0E94C000D82E55
:1001D000FE013196D5018C2D0D9001928150E1F7F1
:1001E0008E010F5F1F4FF80181918F010E94A800BF
:1001F0000E151F05C1F78D2D0E94A800E6CFF894BB
:02020000FFCF2E
:0E020200492052656365697665643A20000004
:00000001FF
