:100000000C94C7000C94E8000C94E8000C94E800F1
:100010000C94E8000C94EE010C94E8000C941E0281
:100020000C94E8000C94E8000C94E8000C94E800B0
:100030000C94E8000C94E8000C94E8000C94E800A0
:100040000C94E8000C94E8000C94E8000C94E80090
:100050000C94E8000C94E8000C94E8000C94E80080
:100060000C94E8000C944E010C94E8000C94E80009
:100070000C94E8000C94E8000C94E8000C94E80060
:100080000C94E8000C94E8000C94E8000C94E80050
:100090000C94E8000C94E8000C94E8000C94E80040
:1000A0000C94E8000C94E8000C94E8000C94E80030
:1000B0000C94E8000C94E8000C94E8000C94E80020
:1000C0000C94E8000C94E8000C94E8000C94E80010
:1000D0000C94E8000C94E8000C94E8000C94E80000
:1000E0000C94E800B4077606760676067606760661
:1000F0007606760676067606760676067606760620
:10010000B707CA0776067606760676067606760678
:100110007606760676063007760633077606760686
:10012000760676067606760676060607760676065E
:100130007606760676061407760676067606760640
:1001400076061B0725077606760676067B07760673
:1001500076067606760676067606760676067606BF
:1001600076060B07760676067606030776063607CA
:100170007606760676060E072A072D077606760699
:1001800076061107220776067606760644071124BE
:100190001FBECFEFD1E2DEBFCDBF00E00CBF12E04B
:1001A000A0E0B2E0EAE7F4E100E00BBF02C0079094
:1001B0000D92A833B107D9F712E0A8E3B2E001C06D
:1001C0001D92A03FB107E1F70E943E060C943B0A46
:1001D0000C9400008FE58093C4001092C500E1EC00
:1001E000F0E0808188618083A2ECB0E08C91866031
:1001F0008C938081806880830895E0ECF0E09081AA
:1002000095FFFDCF8093C6000895EF92FF920F9364
:100210001F93CF93DF93F82EE92E082F192FC0E0FC
:10022000D0E006C0F80181918F010E94FD00219667
:10023000EF2DFE2DDF010D900020E9F71197AE1B89
:10024000BF0BCA17DB0770F3DF91CF911F910F919E
:10025000FF90EF9008952091E7023091E80280919D
:100260006002909161022817390759F0F901E959A4
:10027000FD4F80812F5F3F4F3093E8022093E702CC
:1002800001C080E02091E7023091E802203831057A
:1002900020F01092E8021092E70208951F920F9248
:1002A0000FB60F920BB60F9211242F933F934F93DB
:1002B0005F936F937F938F939F93AF93BF93EF93CE
:1002C000FF9380916002909161022091C600FC0131
:1002D000E959FD4F2083019690936102809360025B
:1002E0008038910520F010926102109260020E9405
:1002F0002B01809366022091540230915502211502
:10030000310541F48A3359F481E090E0909355022D
:1003100080935402809166028A3309F440C0209190
:1003200054023091550221303105C9F5882369F412
:1003300010925502109254021092560210925702D7
:1003400010925802109259022AC0409156025091C0
:1003500057026091580270915902FA01E551FD4F20
:100360008083DB01CA010196A11DB11D8093560255
:1003700090935702A0935802B0935902833091058D
:10038000A105B10560F0109256021092570210922A
:100390005802109259021092550210925402FF9185
:1003A000EF91BF91AF919F918F917F916F915F91ED
:1003B0004F913F912F910F900BBE0F900FBE0F905A
:1003C0001F9018951DB88FEF8EB98DB380658DBBCA
:1003D000EAE6F0E080818262808308951F920F92A6
:1003E0000FB60F9211248F939F934D990AC080915D
:1003F00052029091530201979093530280935202BC
:1004000009C0809152029091530201969093530239
:10041000809352029F918F910F900FBE0F901F906B
:100420001895109253021092520210924C021092A0
:100430004D0210924E0210924F0208951F920F9299
:100440000FB60F9211248F939F93AF93BF934F9941
:1004500014C080914C0290914D02A0914E02B09137
:100460004F020196A11DB11D80934C0290934D0245
:10047000A0934E02B0934F0213C080914C02909112
:100480004D02A0914E02B0914F020197A109B1090E
:1004900080934C0290934D02A0934E02B0934F0272
:1004A000BF91AF919F918F910F900FBE0F901F90B2
:1004B00018954F925F926F927F928F929F92AF9218
:1004C000BF92CF92DF92EF92FF920F931F93CF9341
:1004D000DF936B017C0129013A0182EC80932001BA
:1004E0008093A0008CE1809321018093A100109261
:1004F00022011092A200C6E2D1E080EB94E0998341
:100500008883E6EAF0E091838083608171810081D5
:10051000118180E090E00E94DF084B015C01C7017F
:10052000B60120E030E048EC52E40E9446086B013E
:100530007C01B80180E090E00E94DF089B01AC01E3
:10054000C701B6010E946D099B01AC01C501B40150
:100550000E94E1070E94B308DC01CB019093A9003F
:100560008093A800688179810990D881C02D80E0AE
:1005700090E00E94DF084B015C01C301B20120E062
:1005800030E048EC52E40E9446086B017C01BE0159
:1005900080E090E00E94DF089B01AC01C701B6013A
:1005A0000E946D099B01AC01C501B4010E94E107E5
:1005B0000E94B308DC01CB019093290180932801AC
:1005C000DF91CF911F910F91FF90EF90DF90CF902F
:1005D000BF90AF909F908F907F906F905F904F9063
:1005E0000895E1E0F1E08081816080831092020152
:1005F00008958FEF81B912B8EAE0F1E08081886058
:100600008083E1E0F1E08081886080830895E1E00B
:10061000F1E0808182608083109202010895E2E01F
:10062000F1E08081826080830895E2E0F1E08081E2
:100630008D7F80830895E2E0F1E080818160808396
:100640000895E2E0F1E080818E7F8083089586E066
:1006500082B9089589E082B9089582E082B9089547
:1006600088E082B9089512B808958AE082B90895A1
:10067000CF92DF92EF92FF920F931F93CF93DF936E
:100680008C01EB010E9411028EE091E0C89FB00145
:10069000C99F700DD89F700D1124882777FD809514
:1006A000982F0E94E10823E537E240E351E40E94DD
:1006B00046080E94AE08DC01CB01EC016C01EE247F
:1006C000D7FCE094FE2C02C00E94350380915202B8
:1006D000909153028C179D07BCF380914C0290912E
:1006E0004D02A0914E02B0914F028C159D05AE05B2
:1006F000BF0554F30E94110282E490E0089FB0010C
:10070000099F700D189F700D1124882777FD809523
:10071000982F0E94E10820E030E040E651E40E947A
:1007200046080E94AE08DC01CB01EC01CC24DD249C
:10073000C81AD90AEE24D7FCE094FE2C02C00E940D
:10074000270380915202909153028C179D07BCF3AE
:1007500080914C0290914D02A0914E02B0914F02B7
:10076000C816D906EA06FB0654F383E780936602AF
:100770000E941102DF91CF911F910F91FF90EF9096
:10078000DF90CF900895CF92DF92EF92FF920F9378
:100790001F93CF93DF938C01EB010E9411028EE037
:1007A00091E0C89FB001C99F700DD89F700D1124B2
:1007B000882777FD8095982F0E94E10823E537E28E
:1007C00040E351E40E9446080E94AE08DC01CB01E0
:1007D000EC016C01EE24D7FCE094FE2C02C00E94D8
:1007E000350380915202909153028C179D07BCF300
:1007F00080914C0290914D02A0914E02B0914F0217
:100800008C159D05AE05BF0554F30E94110282E4CC
:1008100090E0089FB001099F700D189F700D112482
:10082000882777FD8095982F0E94E10820E030E02E
:1008300040E651E40E9446080E94AE08EB016B01BD
:10084000EE24D7FCE094FE2CD095C195DF4F02C07A
:100850000E942A0380914C0290914D02A0914E0279
:10086000B0914F028C159D05AE05BF058CF38091AC
:10087000520290915302C817D90754F383E780932B
:1008800066020E941102DF91CF911F910F91FF909C
:10089000EF90DF90CF90089585E082B908954F9250
:1008A0005F926F927F928F929F92AF92BF92CF9200
:1008B000DF92EF92FF924B015C010E9411020E94B5
:1008C00035038FE39CE90197F1F700C000008091A8
:1008D00052029091530240914C0250914D0260910E
:1008E0004E0270914F02841B950BBC01660F771F5F
:1008F000880F991F880F991F880F991F860F971FC0
:10090000DC01BD01882777FD8095982F0E94E108C2
:100910006B017C01C501B401A70196010E94E107AA
:100920002B013C01C701B601A50194010E94E20719
:100930009B01AC01C301B2010E9459020E94350320
:100940008FEF99EFA0E081509040A040E1F700C008
:100950000000FF90EF90DF90CF90BF90AF909F90FE
:100960008F907F906F905F904F900895CF92DF921D
:10097000EF92FF92CF93DF93EC0180E284B982EC97
:10098000809380008CE18093810010928200E6E8E1
:10099000F0E081EE94E0918380836081718180E05A
:1009A00090E00E94DF086B017C01BE01882777FD83
:1009B0008095982F0E94E10824EB32EA41E15CE344
:1009C0000E946D092DEC3CEC4CE45FE30E94E207D1
:1009D00020E030E04AE752E40E946D099B01AC013F
:1009E000C701B6010E94E1070E94B308DC01CB01F8
:1009F0009093890080938800DF91CF91FF90EF90D2
:100A0000DF90CF90089580E480937C0087E8809306
:100A10007A000895ECE7F0E090818770987F982B3A
:100A20009083EAE7F0E0808180648083808186FDA6
:100A3000FDCF80917800909179000895F8940E94FC
:100A4000F1020E94F9020E9407030E94EA000E943C
:100A500003050E94E20178940895681779071CF451
:100A6000481759076CF0861797071CF44617570765
:100A700054F0841795071CF4641775073CF008952B
:100A800021E030E005C022E030E002C023E030E0A9
:100A9000822F932F0895809164029091650222E045
:100AA0008B3D9207E8F020915C0230915D0242E0BC
:100AB0002B3D3407A8F0209162023091630242E09E
:100AC0002B3D340768F01092EF021092EE02109264
:100AD000EA021092E90210925F0210925E020895FB
:100AE00022E084349207F8F420915C0230915D0298
:100AF00042E024343407B8F420916202309163025A
:100B000042E02434340778F481E090E09093EF02DF
:100B10008093EE029093EA028093E90290935F0241
:100B200080935E02089560915C0270915D02409135
:100B30006202509163020E942D058130910579F483
:100B40001092EF021092EE0281E090E09093EA02A0
:100B50008093E90290935F0280935E020895823051
:100B6000910579F481E090E09093EF028093EE029A
:100B70001092EA021092E90290935F0280935E0263
:100B800008958330910571F481E090E09093EF0235
:100B90008093EE029093EA028093E90210925F0242
:100BA00010925E0208950E944B058091EE02909192
:100BB000EF028130910531F58091E9029091EA02CE
:100BC000009781F480915E0290915F0281309105DF
:100BD000C9F40E9435038091EE029091EF028130BA
:100BE000910581F48091E9029091EA0281309105AA
:100BF00049F480915E0290915F028130910589F401
:100C00000E944C048091EE029091EF02009749F40B
:100C100080915E0290915F028130910511F40E94F3
:100C20002A038091EE029091EF028130910541F408
:100C300080915E0290915F02009711F40E94270359
:100C40008091EE029091EF020097B9F48091E90251
:100C50009091EA02009789F480915E0290915F0280
:100C6000009759F40E94330383E78093660281E082
:100C700090E090935B0280935A020895CF93DF93A4
:100C8000CDB7DEB76E970FB6F894DEBF0FBECDBFFF
:100C9000F8940E941E0578940F2EF0E0CF2EF0E01D
:100CA000DF2EF0E0EF2EF0E0FF2EF02D0BEE12E045
:100CB0000F2EFCE24F2EF2E05F2EF02D0F2EF1E210
:100CC0002F2EF2E03F2EF02D0F2EF0E0AF2EF2E0AF
:100CD000BF2EF02D0F2EFAE08F2EF2E09F2EF02D7A
:100CE0000F2EF6E16F2EF2E07F2EF02DC8010E944C
:100CF000D0090E94B6048FEF91EEA4E0815090409D
:100D0000A040E1F700C00000809166028B32A1F4A0
:100D100060E070E088EC92E420E030E047EC52E4E0
:100D20000E9459020F2EF0E0CF2EF0E0DF2EF8ECFB
:100D3000EF2EF2E4FF2EF02D809166028D33A1F4A8
:100D400060E070E080EF91E420E030E044E252E4C3
:100D50000E9459020F2EF0E0CF2EF0E0DF2EF0EFD0
:100D6000EF2EF1E4FF2EF02D809166028D32A1F47A
:100D700060E070E080EA91E42AE939E94DEC51E461
:100D80000E9459020F2EF0E0CF2EF0E0DF2EF0EAA5
:100D9000EF2EF1E4FF2EF02D81E00E940A059093E2
:100DA00065028093640282E00E940A0590935D02CE
:100DB00080935C0283E00E940A0590936302809313
:100DC0006202AFE3BCE91197F1F700C00000809127
:100DD0005A0290915B028130910519F481E20E94E0
:100DE000FD00E09166028E2F90E0FC01B397E5359F
:100DF000F10508F07BCFEE58FF4FEE0FFF1F059077
:100E0000F491E02D19940E94350370CFC701B6010B
:100E10000E944F046BCF0E944C0468CF0E942A03AB
:100E200065CF0E94270362CF88E290E06BE070E01C
:100E30000E94C3035BCF8EE190E06BE070E00E9404
:100E4000380354CF0E94330351CF10925B021092AB
:100E50005A024CCF0E941B0349CF0E94210346CF68
:100E60000E94300343CF0E942D0340CF0E940F0306
:100E70008FEF91EEA4E081509040A040E1F700C0D8
:100E800000000E94150332CF8091640290916502A8
:100E9000BE016F5F7F4F4AE050E00E94EE09C5013E
:100EA0000E940501CE0101960E94050180915C021D
:100EB00090915D02BE016F5F7F4F4AE050E00E945B
:100EC000EE09C4010E940501CE0101960E940501B0
:100ED0008091620290916302BE016F5F7F4F4AE092
:100EE00050E00E94EE09C3010E940501CE01019667
:100EF0000E940501FBCE0E944B058091EE0290916D
:100F0000EF02BE016F5F7F4F4AE050E00E94EE09A2
:100F1000C5010E940501CE0101960E940501809144
:100F2000E9029091EA02BE016F5F7F4F4AE050E014
:100F30000E94EE09C4010E940501CE0101960E94A3
:100F4000050180915E0290915F02BE016F5F7F4F4D
:100F50004AE050E00E94EE09C3010E940501CE0163
:100F600001960E940501C2CE0E94D305BFCE80919A
:100F7000520290915302BE01605F7F4F4AE050E001
:100F80000E94EE09C1010E940501CE0140960E9417
:100F90000501ACCE80914C0290914D02A0914E0281
:100FA000B0914F02BE01605F7F4F4AE050E00E9467
:100FB000EE09C2010E940501CE0140960E94050182
:100FC00095CE5058BB27AA270ED04DC13ED130F048
:100FD00043D120F031F49F3F11F41EF433C10EF4DD
:100FE000E095E7FB29C1E92F4FD180F3BA176207DB
:100FF00073078407950718F071F49EF567C10EF426
:10100000E0950B2EBA2FA02D0B01B90190010C0118
:10101000CA01A0011124FF27591B99F0593F50F430
:10102000503E68F11A16F040A22F232F342F442788
:10103000585FF3CF469537952795A795F040539580
:10104000C9F77EF41F16BA0B620B730B840BBAF050
:101050009150A1F0FF0FBB1F661F771F881FC2F7BB
:101060000EC0BA0F621F731F841F48F487957795CF
:101070006795B795F7959E3F08F0B3CF9395880F86
:1010800008F09927EE0F9795879508950CD0EBC03F
:10109000E3D040F0DAD030F021F45F3F19F0CCC05B
:1010A000511115C1CFC0F0D098F39923C9F355233E
:1010B000B1F3951B550BBB27AA276217730784074B
:1010C00038F09F5F5F4F220F331F441FAA1FA9F301
:1010D00033D00E2E3AF0E0E830D091505040E695F3
:1010E000001CCAF729D0FE2F27D0660F771F881F54
:1010F000BB1F261737074807AB07B0E809F0BB0B43
:10110000802DBF01FF2793585F4F2AF09E3F510566
:1011100068F092C0DCC05F3FECF3983EDCF386954C
:1011200077956795B795F7959F5FC9F7880F911DDC
:101130009695879597F90895E1E0660F771F881FC8
:10114000BB1F621773078407BA0720F0621B730B7B
:10115000840BBA0BEE1F88F7E095089504D06894CD
:10116000B111B5C0089598D088F09F5790F0B92F6D
:101170009927B751A0F0D1F0660F771F881F991FEC
:101180001AF0BA95C9F712C0B13081F09FD0B1E022
:1011900008959CC0672F782F8827B85F39F0B93F32
:1011A000CCF3869577956795B395D9F73EF49095EE
:1011B0008095709561957F4F8F4F9F4F0895E8946C
:1011C00009C097FB3EF490958095709561957F4F8F
:1011D0008F4F9F4F9923A9F0F92F96E9BB2793953D
:1011E000F695879577956795B795F111F8CFFAF44D
:1011F000BB0F11F460FF1BC06F5F7F4F8F4F9F4F7E
:1012000016C0882311F096E911C0772321F09EE8DB
:10121000872F762F05C0662371F096E8862F70E041
:1012200060E02AF09A95660F771F881FDAF7880F1B
:101230009695879597F9089597F99F6780E870E0EC
:1012400060E008959FEF80EC089500240A9416163C
:10125000170618060906089500240A9412161306A4
:10126000140605060895092E0394000C11F4882332
:1012700052F0BB0F40F4BF2B11F460FF04C06F5F4E
:101280007F4F8F4F9F4F089557FD9058440F551F24
:1012900059F05F3F71F04795880F97FB991F61F0F8
:1012A0009F3F79F087950895121613061406551F6F
:1012B000F2CF4695F1DF08C0161617061806991FDB
:1012C000F1CF86957105610508940895E894BB27D0
:1012D00066277727CB0197F908950BD0C4CFB5DFE8
:1012E00028F0BADF18F0952309F0A6CFABCF112470
:1012F000EECFCADFA0F3959FD1F3950F50E0551FB5
:10130000629FF001729FBB27F00DB11D639FAA275A
:10131000F00DB11DAA1F649F6627B00DA11D661FA9
:10132000829F2227B00DA11D621F739FB00DA11DCA
:10133000621F839FA00D611D221F749F3327A00D84
:10134000611D231F849F600D211D822F762F6A2F20
:1013500011249F5750408AF0E1F088234AF0EE0FA5
:10136000FF1FBB1F661F771F881F91505040A9F7B2
:101370009E3F510570F060CFAACF5F3FECF3983EDF
:10138000DCF3869577956795B795F795E7959F5F19
:10139000C1F7FE2B880F911D9695879597F90895B3
:1013A000FC0188279927E89421912032E9F329301C
:1013B00010F02E30C8F32B3241F02D3239F46894FE
:1013C00004C00E940F0A820F911D219120532A30E0
:1013D000C0F31EF4909581959F4F0895FB019F01E6
:1013E000E8944230C4F04532B4F44A3029F497FB13
:1013F0001EF4909581959F4F642F77270E94270AAE
:10140000805D8A330CF0895D8193CB010097A1F751
:1014100016F45DE251931082C9010C94170A7AE028
:10142000979F902D879F802D910D11240895DC01A9
:10143000FC01672F71917723E1F7329704C07C910B
:101440006D9370836291AE17BF07C8F30895AA1B0E
:10145000BB1B51E107C0AA1FBB1FA617B70710F09F
:10146000A61BB70B881F991F5A95A9F780959095D1
:0A147000BC01CD010895F894FFCFF0
:10147A00206C6566742069723A00206D6964646C38
:10148A00652069723A002052696768742069723A65
:10149A000020776865656C3A31203D0020776865E1
:0814AA00656C3A32203D0000A0
:00000001FF
