:100000000C9472000C9493000C9493000C94930045
:100010000C9493000C9493000C9493000C94930014
:100020000C9493000C9493000C9493000C94930004
:100030000C9493000C9493000C9493000C949300F4
:100040000C9493000C9493000C9493000C949300E4
:100050000C9493000C9493000C9493000C949300D4
:100060000C9493000C9493000C9493000C949300C4
:100070000C9493000C9493000C9493000C949300B4
:100080000C9493000C9493000C9493000C949300A4
:100090000C9493000C9493000C9493000C94930094
:1000A0000C9493000C9493000C9493000C94930084
:1000B0000C9493000C9493000C9493000C94930074
:1000C0000C9493000C9493000C9493000C94930064
:1000D0000C9493000C9493000C9493000C94930054
:1000E0000C94930011241FBECFEFD1E2DEBFCDBF31
:1000F00000E00CBF12E0A0E0B2E0E4EFF1E000E0CD
:100100000BBF02C007900D92A030B107D9F712E0E3
:10011000A0E0B2E001C01D92A030B107E1F70E945B
:10012000BA000C94F8000C94000081E08093010167
:100130001092020108958FE081B912B8089581E00C
:100140008093020108951092020108958AE082B915
:10015000089585E082B9089586E082B9089589E01E
:1001600082B9089582E082B9089588E082B908953D
:1001700012B808950E949B000E9495000E94A6005C
:100180008FEF9FEFA6E881509040A040E1F700C0BC
:1001900000000E94B8008FEF9FEFA9E581509040CA
:1001A000A040E1F700C000000E949F008FEF9FEF8A
:1001B000A6E881509040A040E1F700C000000E94F6
:1001C000A9008FEF9FEFA6E881509040A040E1F793
:1001D00000C000000E94A3000E94B8008FEF9FEFB4
:1001E000A6E881509040A040E1F700C00000C6CFD3
:0401F000F894FFCFB1
:00000001FF
